:100000000C9462000C948A000C948A000C948A0070
:100010000C948A000C948A000C948A000C948A0038
:100020000C948A000C948A000C948A000C948A0028
:100030000C948A000C948A000C948A000C948A0018
:100040000C94030B0C948A000C948A000C948A0084
:100050000C948A000C948A000C948A000C948A00F8
:100060000C948A000C948A000000000024002700F1
:100070002A000000000023002600290000000008DC
:10008000000201000003040700000000000000005F
:10009000010204081020408001020408102001021F
:1000A0000408102000000000250028002B00040494
:1000B0000404040404040202020202020303030310
:1000C00003034D0B11241FBECFEFD8E0DEBFCDBF21
:1000D00011E0A0E0B1E0EEEDF5E302C005900D9275
:1000E000AA37B107D9F725E0AAE7B1E001C01D9210
:1000F000A332B207E1F710E0C2E6D0E004C02197D6
:10010000FE010E94C71AC136D107C9F70E94200C10
:100110000C94ED1A0C940000382F262F9DE2899F35
:1001200020193109699F200D311D1124832F089555
:100130000F931F93CF93DF93EC018B01FB01608141
:1001400088810E948C008883F801618189810E94E6
:100150008C008983F80162818A810E948C008A83E5
:10016000DF91CF911F910F9108953FE7FC0120810E
:10017000222321F0239F212D09F02F5F2083FB01F3
:100180002081222321F0239F212D09F02F5F20833E
:10019000FA012081222321F0239F212D09F02F5FD6
:1001A00020831124089520E0DC0160FF03C001C01A
:1001B0002D932D936250E0F77040D0F70895CF93C0
:1001C000DF93C0910502D0910602209789F08A81C1
:1001D0009B81009749F02D853E85B901660F771FF9
:1001E000620F731F0E94D3000C80DD81C02DEDCF04
:1001F000DF91CF910895833081F028F4813099F018
:100200008230A9F008958730A9F08830C9F0843091
:10021000B1F4809180008F7D03C0809180008F7742
:1002200080938000089584B58F7784BD089584B548
:100230008F7DFBCF8091B0008F778093B0000895C1
:100240008091B0008F7DF9CF1F93CF93DF93E9E8C2
:10025000F0E09491EDE9F0E0D491EBEBF0E0C491A3
:10026000CC23B9F0182F992319F0892F0E94FB0095
:10027000EC2FF0E0EE0FFF1FEC55FF4FA591B4916E
:100280008FB7F894EC91111108C0D095DE23DC9360
:100290008FBFDF91CF911F910895DE2BF8CFCF93C1
:1002A000DF93282F30E0F901E458FF4F8491F901E2
:1002B000E057FF4FD491F901E255FF4FC491CC2391
:1002C000A1F081110E94FB00EC2FF0E0EE0FFF1F68
:1002D000EE58FF4FA591B491EC91ED2381E090E0B1
:1002E00009F480E0DF91CF91089580E090E0FACFAB
:1002F000CF93DF9390E0FC01E057FF4F24918255AC
:100300009F4FFC0184918823D1F090E0880F991FC2
:10031000FC01E859FF4FA591B491FC01EC55FF4F4A
:10032000C591D49161110EC09FB7F8948C91E22FC2
:10033000E0958E238C932881E223E8839FBFDF9191
:10034000CF9108958FB7F894EC91E22BEC938FBF87
:10035000F6CF8E3008F08E508770806480937C00DA
:1003600080917A00806480937A0080917A0086FD83
:10037000FCCF809178009091790008953FB7F89470
:100380008091F1019091F201A091F301B091F401FB
:1003900026B5A89B05C02F3F19F00196A11DB11DE0
:1003A0003FBFBA2FA92F982F8827BC01CD01620F1C
:1003B000711D811D911D42E0660F771F881F991FD7
:1003C0004A95D1F708958F929F92AF92BF92CF92A4
:1003D000DF92EF92FF924B015C010E94BE016B0124
:1003E0007C010E94BE016C197D098E099F09683E3F
:1003F000734081059105A8F321E0821A9108A108B4
:10040000B10888EEC80E83E0D81EE11CF11C8114EF
:100410009104A104B10429F7FF90EF90DF90CF90F1
:10042000BF90AF909F908F9008952FB7F8946091F0
:10043000ED017091EE018091EF019091F0012FBFDD
:1004400008954F925F926F927F929F92AF92BF9268
:10045000CF92DF92EF92FF920F931F93CF93DF9390
:1004600000D01F92CDB7DEB7D0900B0280910E0264
:1004700090910F02A0911002B0911102892B8A2B4A
:100480008B2BD9F00E94BE01009107021091080247
:100490002091090230910A02601B710B820B930BB1
:1004A00000910E0210910F02209110023091110262
:1004B0006017710782079307C8F20E94BE0160931C
:1004C0000702709308028093090290930A02E09158
:1004D0001602F0911702309759F040911202509194
:1004E000130260911402709115028D2D0995D82E7A
:1004F000E0900502F09006024D2C512C712C612CDD
:10050000E114F10409F459C0D7011C96CC901C9752
:1005100080910C0290910D028436910510F41C9686
:100520001C92D701ED91FC91A280B38019821A82AE
:100530001B82DD2079F1F701369610E000E0219171
:10054000222319F19280992001F130E050E040E03F
:100550002F5F3F4F4F4F5F4FC301B2010E94A31A5D
:100560009B01AC01892D90E0B0E0A0E0BC01CD0181
:100570006F5F7F4F8F4F9F4F0E94A31AA1E0B0E0A3
:10058000AC0FBD1FA00FB11F8C930F5F1F4F033027
:100590001105A9F609811A812B81F7014585568538
:1005A00062817381C701F5010995D7011C96CC9230
:1005B0001C971496ED90FC90A3CF8091030290912C
:1005C00004028C010F5F1F4F10930402009303027B
:1005D0004997B4F10E941502C090FF01D09000022B
:1005E000E0900102F09002029B01AC012C193D0940
:1005F0004E095F0921F421E030E040E050E088EE50
:1006000093E0089FB001099F700D189F700D112491
:10061000072E000C880B990B0E94621830930D0274
:1006200020930C0210920402109203020E94150201
:100630006093FF0170930002809301029093020285
:100640000F900F900F90DF91CF911F910F91FF901E
:10065000EF90DF90CF90BF90AF909F907F906F9082
:100660005F904F90089580E991E008951F93DC0119
:10067000FB017C9111965C91119712961C91972F1A
:10068000990F990F990F35E5292F239F020E20E02E
:10069000211D1124822F672F6074472F407277FD30
:1006A00066C0611152C0411105C0922F9095892FEB
:1006B00090E004C025E5280F90E08BEA5F3F09F445
:1006C00022C0552309F474C0509530E0552329F019
:1006D000559F312D112451113F5F432F4095582FC5
:1006E000549F050E50E0511D852F249F020E20E0DF
:1006F000211D592F549F050E50E0511D952F112497
:10070000830F230F930F1F3FD9F030E0112321F007
:10071000119F312D09F03F5F332309F44DC0482F5D
:10072000439F040E40E0411D842F239F020E20E0D2
:10073000211D592F539F050E50E0511D952F112457
:100740008083218392831F91089541110BC0392F1B
:100750002AEA329F030E30E0311D11249BEA931BDD
:10076000280FA5CF90E02095982F80E0A7CF6111AA
:1007700012C041110CC0392F2AEA329F030E30E01B
:10078000311D11242BEA231B95E5930FEECF922FF9
:10079000909520E093CF411106C025E5280F9BEAF4
:1007A000981B822FF6CF2AEA280F90E0932FF8CFDC
:1007B0009FEF2FEF8FEFA7CF90E020E080E0C0CF3A
:1007C000CF93DF9300D01F92CDB7DEB720914102C7
:1007D00012163CF5BE016F5F7F4F0E943603609199
:1007E0004602709147028091410223E08202C001DB
:1007F0001124E0914402F09145026E177F0749F001
:1008000029813A814B81208331834283E80FF91F8C
:10081000F4CF81E492E00F900F900F90DF91CF9191
:100820000895F9CFCF92DF92EF9230E020E0FA0105
:10083000C080D180E280FC01C192D192E192CF01CF
:100840002F5F3F4F6217730791F7EF90DF90CF90C4
:1008500008950F931F93CF93DF9300D01F92CDB7CE
:10086000DEB70091180210911902BE016F5F7F4F31
:1008700080E295E00E943603F801FF27EE0FFF1F8C
:10088000EB50FE4FAE014F5F5F4F6DE270E0808135
:1008900091810E941204BE016F5F7F4F80E295E05C
:1008A0000E943603E4E0E01BF0E0EE0FFF1FEB5088
:1008B000FE4FAE014F5F5F4F6DE270E0808191812E
:1008C0000E9412040F900F900F90DF91CF911F9113
:1008D0000F9108950F931F93CF93DF9310E000E0E3
:1008E000C82FD0E0CC0FDD1FCB50DE4FE881F9815F
:1008F000E00FF11F8081811115C08181811112C02B
:10090000828181110FC0BF0180E295E00E94360311
:100910000D5F1F4F0738110549F7DF91CF911F91E8
:100920000F910895108211821282F2CFEF92FF92FE
:100930001F93CF93DF9300D000D000D0CDB7DEB7A8
:100940006C837D838E837A01BE016F5F7F4FCE0102
:1009500004960E9436031091A701F701E10FF11DE3
:10096000E081F0E0EE0FFF1FEB50FE4FAE014F5F56
:100970005F4F6DE270E0808191810E94120480914E
:10098000E701882329F01F5F153070F41093A70149
:1009900026960FB6F894DEBF0FBECDBFDF91CF9184
:1009A0001F91FF90EF9008951092A701F1CF2F9221
:1009B0003F924F925F926F927F928F929F92AF92EF
:1009C000BF92CF92DF92EF92FF920F931F93CF933C
:1009D000DF9300D01F92CDB7DEB769837A838B8314
:1009E000242E8091E70181111092A6011091A60199
:1009F000143008F061C0882351F11F5F1093A601E5
:100A00008091E8019091E901A091EA01B091EB0198
:100A10008093A2019093A301A093A401B093A50198
:100A2000E2E0F1E021E131E04CE292818181890F45
:100A30008183882311F08C3229F4222009F4B3C079
:100A40009195928333962E173F0779F735C00E9410
:100A500015026B017C0180912B0190912C01A091DA
:100A60002D01B0912E0152E0B695A79597958795E7
:100A70005A95D1F74091A2015091A3016091A40130
:100A80007091A501840F951FA61FB71F4091E30128
:100A90005091E4016091E5017091E60176956795CA
:100AA00057954795841B950BA60BB70B8C159D0589
:100AB000AE05BF0508F4A1CF92E0C92E91E0D92E72
:100AC00025EFE22E21E0F22E3FEF632E31E0732E70
:100AD0008824839499249A94F60181813280F3E1E9
:100AE0003F9E402C1124582E5418481A84E1A82EF9
:100AF000B12C852D222009F464C057FC842D8D3241
:100B00001CF099E5981B892FF70100811181F3E012
:100B10008F02000D111D1124B801CE0101960E9413
:100B20003603C401B5010E94B31A6195F801208112
:100B3000269F020E20E0211D20832181269F020E88
:100B400020E0211D21832281269F020E20E0211D0D
:100B500022831124530CF1E0AF1AB1084318A114F9
:100B6000B10409F0C6CF83E0C80ED11C92E0E90EB3
:100B7000F11C6E147F0409F0AFCF0F900F900F900F
:100B8000DF91CF911F910F91FF90EF90DF90CF9069
:100B9000BF90AF909F908F907F906F905F904F909D
:100BA0003F902F9008959F3F21F481114BCF4183B7
:100BB00049CF913009F046CF8C3209F043CF1182F2
:100BC00041CF57FE03C08CE2850D9ECFECE2E515C8
:100BD0000CF09ACF83EDF8CF109281011092800132
:100BE0008091E8019091E901A091EA01B091EB01B7
:100BF00080937C0190937D01A0937E01B0937F014F
:100C000008956F927F928F929F92AF92BF92CF92F0
:100C1000DF92EF92FF920F931F93CF93DF9300D059
:100C20001F92CDB7DEB769837A838B83F42E122FA0
:100C30008091E701811110928001E090800193E0A2
:100C40009E1508F453C08823E1F0E394E0928001FC
:100C50008091E8019091E901A091EA01B091EB0146
:100C600080937C0190937D01A0937E01B0937F01DE
:100C700080918101080F07FF83C08CE2809381017E
:100C800081C00E941502AB01BC0180912B019091A3
:100C90002C01A0912D01B0912E01E2E0B695A7950F
:100CA00097958795EA95D1F780907C0190907D018A
:100CB000A0907E01B0907F01880D991DAA1DBB1DDB
:100CC0008090E3019090E401A090E501B090E601EE
:100CD000B694A7949794879488199909AA09BB098F
:100CE00084179507A607B70708F4AFCF35EFA32EF3
:100CF00031E0B32E45E0E42E5DE2852E912C1F0DF0
:100D000000E0D12CC12C602E712C20918101C301F7
:100D10008C0D9D1D820F911D27FD9A95B4010E9497
:100D2000B31A9927BC01660F771F860F971FF5012D
:100D300060817181680F791FCE0101960E94360390
:100D4000FFEFCF1ADF0ACF1400F3010F0D32C8F204
:100D5000EA9482E0A80EB11CE110D2CF0F900F9060
:100D60000F90DF91CF911F910F91FF90EF90DF9047
:100D7000CF90BF90AF909F908F907F906F9008958D
:100D800000938101809181018D3209F0AFCF1092E3
:100D90008101ACCFCF93DF9380E10E94A901CFEF17
:100DA000D3E09E01281B390B032E000C440B550B7E
:100DB0002A50310941095109AFEFB0E00E9457189C
:100DC0006F307C4F8F4F9F4F9CF180E10E94A901B3
:100DD0009E01281B390B032E000C440B550B2A5087
:100DE000310941095109AFEFB0E00E945718611570
:100DF000724F83409105F4F480E10E94A9019E01A5
:100E0000281B390B032E000C440B550B2A503109BB
:100E100041095109AFEFB0E00E94571822EF33E0CB
:100E200040E050E00E943818822FDF91CF91089562
:100E300080E0FBCF8FEFF9CFCF93DF938EE00E945E
:100E4000A901CFEFD3E09E01281B390B032E000C24
:100E5000440B550B2A50310941095109AFEFB0E05D
:100E60000E9457186F307C4F8F4F9F4FA4F18EE038
:100E70000E94A9019E01281B390B032E000C440B74
:100E8000550B2A50310941095109AFEFB0E00E94DA
:100E900057186115724F83409105FCF48EE00E9453
:100EA000A9019E01281B390B032E000C440B550B86
:100EB0002A50310941095109AFEFB0E00E9457189B
:100EC00022EF33E040E050E00E943818822F8095F6
:100ED000DF91CF9108958FEFFBCF80E0F9CFFC0138
:100EE00023813481808187FF09C04DEF4603C00113
:100EF000479F900D1124820F931F0895CB01880FF7
:100F0000991F860F971FF7CFE3B1E062EF3359F4D3
:100F100081E08093DE01E152E93160F4F0E0E25CCF
:100F2000FE4F808108951092DE01ED33A1F780918C
:100F3000AE0108958FEF08950F931F93CF93DF9322
:100F400020917B012F5F322F377030937B0120FF80
:100F50002BC020E831FD2064347009F02062205F4E
:100F6000FC01EC01239600E011E06485662329F082
:100F700070E0C8010E94B31A6F5F6187322F369FFD
:100F8000030E30E0311D1124311110C0168266238A
:100F900011F0615061873196EC17FD0731F7DF9151
:100FA000CF911F910F91089520E0D4CF3150368317
:100FB000EECF4F925F927F928F929F92AF92BF92AD
:100FC000CF92DF92EF92FF920F931F93CF93DF9315
:100FD0002C01EB010E94BE01F20127853089621BC2
:100FE000730B6A307105B0F3F8948A819B811816EF
:100FF00019060CF0CBC1E881F9810BB104607BB11B
:101000007B7F7BB9BA848F812B2D281B822F2F8366
:101010004F85042E000C550BAA81BB81ED84DC8426
:10102000CE84E394D394C3949E81388599848B8431
:10103000118120E0F32E622F322F31811127889405
:101040003111380F08F43FEF81958894E0FC130FBD
:1010500017958894E1FC130F17958894E2FC130F01
:1010600017958894E3FC130F17958894E4FC130FED
:1010700017958894E5FC130F17958894E6FC130FD9
:1010800017958894E7FC130F17958894232FE11088
:10109000212F8B0D122F002C0BB900C017FF7BB92D
:1010A00030812227889400C000C0002C7BB9311108
:1010B000390F00C0002C0BB900C016FF7BB908F433
:1010C0003FEF9195889400C000C0002C7BB9D0FC04
:1010D000230F00C0002C0BB900C015FF7BB927956A
:1010E0008894D1FC230F00C000C0002C7BB9279549
:1010F000889400C0002C0BB900C014FF7BB9D2FC4F
:10110000230F2795889400C000C0002C7BB9D3FC26
:10111000230F00C0002C0BB900C013FF7BB927952B
:101120008894D4FC230F00C000C0002C7BB9279505
:10113000889400C0002C0BB900C012FF7BB9D5FC0D
:10114000230F2795889400C000C0002C7BB9D6FCE3
:10115000230F00C0002C0BB900C011FF7BB92795ED
:101160008894D7FC230F00C000C0002C7BB92795C2
:10117000889400C0002C0BB900C010FF7BB9132F5E
:10118000D110122F990D00C000C0002C7BB900C0F7
:1011900000C0002C0BB900C017FF7BB93281222799
:1011A000889400C000C0002C7BB931113F0D00C0F5
:1011B000002C0BB900C016FF7BB908F43FEFE40F19
:1011C000F51F00C000C0002C7BB9C0FC230F00C07D
:1011D000002C0BB900C015FF7BB927958894C1FC82
:1011E000230F00C000C0002C7BB92795889400C055
:1011F000002C0BB900C014FF7BB9C2FC230F27954C
:10120000889400C000C0002C7BB9C3FC230F00C031
:10121000002C0BB900C013FF7BB927958894C4FC40
:10122000230F00C000C0002C7BB92795889400C014
:10123000002C0BB900C012FF7BB9C5FC230F27950A
:10124000889400C000C0002C7BB9C6FC230F00C0EE
:10125000002C0BB900C011FF7BB927958894C7FCFF
:10126000230F00C000C0002C7BB92795889400C0D4
:10127000002C0BB900C010FF7BB9132FC110122F27
:10128000F19400C000C0002C7BB9F80C00C000C075
:101290000BB900C017FF7BB931812227889400C0A9
:1012A00000C0002C7BB93111380F00C0002C0BB9E5
:1012B00000C016FF7BB908F43FEF8195889400C009
:1012C00000C0002C7BB9E0FC230F00C0002C0BB940
:1012D00000C015FF7BB927958894E1FC230F00C05F
:1012E00000C0002C7BB92795889400C0002C0BB956
:1012F00000C014FF7BB9E2FC230F2795889400C03F
:1013000000C0002C7BB9E3FC230F00C0002C0BB9FC
:1013100000C013FF7BB927958894E4FC230F00C01D
:1013200000C0002C7BB92795889400C0002C0BB915
:1013300000C012FF7BB9E5FC230F2795889400C0FD
:1013400000C0002C7BB9E6FC230F00C0002C0BB9B9
:1013500000C011FF7BB927958894E7FC230F00C0DC
:1013600000C0002C7BB92795889400C0002C0BB9D5
:1013700000C010FF7BB9132FE110122F8B0D00C09E
:1013800000C0002C7BB9119709F086CE4A815B81A1
:1013900020EE31E0DA010E94CD1ADC01CB01F4E04D
:1013A000B695A79597958795FA95D1F730E020E007
:1013B000B901EAE94E9F040E611D5E9F600D711D2B
:1013C0001124650F711D860F971FA11DB11D893E48
:1013D00043E09407A105B10508F434C0885E93404A
:1013E000A109B10942E0B695A795979587954A95C9
:1013F000D1F747E0849F080E211D949F200D311DD9
:101400001124290F311D60917A0170E0860F971F1A
:10141000820F931F4091ED015091EE016091EF0119
:101420007091F001292F3327420F531F611D711D49
:101430004093ED015093EE016093EF017093F00142
:1014400080937A0178940E94BE01F201708B6787C5
:10145000DF91CF911F910F91FF90EF90DF90CF9090
:10146000BF90AF909F908F907F905F904F90089526
:10147000529A08956F927F928F92CF92DF92EF925D
:10148000FF920F931F93CF93DF93CDB7DEB7629791
:101490000FB6F894DEBF0FBECDBF6C017A013801E4
:1014A000822EDC011C962C91CA0157FF04C08827AC
:1014B0009927841B950B7A8369839C838B839E83F6
:1014C0008D836D867E868F86213049F5CE0101960B
:1014D0000E949C0783E0888B1A8A198AF7FE02C053
:1014E0008DEF888BD601ED91FC910484F585E02D7C
:1014F000BE016F5F7F4FC601099562960FB6F894E3
:10150000DEBF0FBECDBFDF91CF911F910F91FF9036
:10151000EF90DF90CF908F907F906F9008951C8612
:101520001B861A86198618861F82D4CFEF92FF92E7
:101530000F931F93CF93DF93CDB7DEB762970FB6AC
:10154000F894DEBF0FBECDBF7C01DC011C968C91F0
:101550007A8369835C834B835E834D830D871E870B
:101560002F878130F9F4CE0101960E949C07188ADA
:101570001A8A198AD701ED91FC910484F585E02D32
:10158000BE016F5F7F4FC701099562960FB6F89451
:10159000DEBF0FBECDBFDF91CF911F910F91FF90A6
:1015A000EF9008951C861B861A86198618861F825E
:1015B000DECF90E080E00895FC0185859685089552
:1015C0000F931F93CF93DF9300D01F92CDB7DEB759
:1015D000AB0119821A821B82DC01ED91FC91019012
:1015E000F081E02D00E010E020E0BE016F5F7F4F52
:1015F00009950F900F900F90DF91CF911F910F9150
:1016000008950E94E81A1F920F920FB60F921124AC
:101610002F933F938F939F93AF93BF938091ED014F
:101620009091EE01A091EF01B091F0013091EC01A9
:1016300023E0230F2D3758F50196A11DB11D2093EE
:10164000EC018093ED019093EE01A093EF01B09334
:10165000F0018091F1019091F201A091F301B0911C
:10166000F4010196A11DB11D8093F1019093F20147
:10167000A093F301B093F401BF91AF919F918F912B
:101680003F912F910F900FBE0F901F90189526E855
:10169000230F0296A11DB11DD2CFCF93DF93EBE0B4
:1016A000F2E08FEF808312821182148613864FEF4F
:1016B0005FEFBA014783508761877287AAE2B2E081
:1016C00092E112969C93129793E114969C9314972F
:1016D00097E013969C93139796E015969C93159715
:1016E00026EE30E017963C932E931697E4EBF0E04D
:1016F000E491F0E0EE0FFF1FEC55FF4F2591349180
:1017000019963C932E931897E0ECF0E0E491F0E00A
:10171000EE0FFF1FEC55FF4F259134911B963C9324
:101720002E931A97E1ECF0E0E491F0E0EE0FFF1F4A
:10173000EC55FF4F259134911D963C932E931C97A9
:10174000E5EBF0E0E491F0E0EE0FFF1FEC55FF4F0A
:10175000259134911F963C932E931E97E6E9F0E075
:10176000E4915096EC935097E2EAF0E0E4915296BF
:10177000EC935297E3EAF0E0E4915196EC935197A1
:10178000E7E9F0E0E4915396EC935397CAE0D0E098
:10179000CD93DC93E4E2F2E015821482138212828C
:1017A00011821082EEE1F2E015821482138212821D
:1017B00011821082E8E1F2E0158214821382128213
:1017C00011821082EEE3F2E01082118282830E9485
:1017D0001502E0E2F5E0108211821282EDE1F5E0FF
:1017E000108211821282EFE4F2E081E080832DEE1C
:1017F00030E03283218326E532E0348323832DE1F8
:1018000035E036832583E8E4F2E08083D283C18328
:1018100049E552E05483438347E752E056834583CA
:10182000E1E4F2E0808381EE90E0928381838AE7B5
:1018300092E09483838336832583DF91CF9108954B
:10184000CF93DF93CDB7DEB7AD970FB6F894DEBF79
:101850000FBECDBF789484B5826084BD84B58160AD
:1018600084BD85B5826085BD85B5816085BD80916B
:101870006E00816080936E001092810080918100E3
:1018800082608093810080918100816080938100DB
:10189000809180008160809380008091B10084609D
:1018A0008093B1008091B00081608093B0008091FE
:1018B0007A00846080937A0080917A0082608093BD
:1018C0007A0080917A00816080937A0080917A001A
:1018D000806880937A001092C1006CED75E080E022
:1018E00090E00E94E30160E083E00E94780161E003
:1018F00082E00E94780161E08DE00E94780160E062
:101900008FE00E94780160E08EE00E94780160E044
:1019100080E10E94780160E085E10E94780160E04A
:1019200084E10E94780160E084E00E94780160E038
:1019300085E00E94780180915202909153029C01AF
:101940002C5D3F4F3093F6012093F50129573F4F0F
:101950003093F8012093F70129573F4F3093FA0154
:101960002093F90129573F4F3093FC012093FB014D
:10197000805C9D4F9093FE018093FD010E9484073F
:10198000811142C281E08093AD018091000180937A
:101990000B022091520230915302809195018111E6
:1019A00045C010928701109286018FEF80938A01C3
:1019B00080938B0180938C0180938D0180938E01A5
:1019C00080938F0181E08093900110929201109298
:1019D00091011092890110928801809105029091E5
:1019E0000602892B31F484E891E0909306028093FB
:1019F0000502E0918201F0918301309721F084E8A3
:101A000091E09583848384E891E0909383018093AF
:101A1000820110929401109293018BE691E09093D1
:101A200085018093840181E080939501529A3093DF
:101A30008701209386018DEE90E090939201809330
:101A4000910180910E0290910F02A0911002B0912D
:101A50001102843C09E09007A105B10520F484EC53
:101A600099E0A0E0B0E080930E0290930F02A09363
:101A70001002B093110270E060E08FE492E00E94E7
:101A80006F07FC011FEF1083118212826BE070E080
:101A90008FE492E00E946F07FC0110831182128292
:101AA0000E9421026CE271E080E090E00E94E3017C
:101AB00070E060E08FE492E00E946F07FC0110820A
:101AC00000E8018312826BE070E08FE492E00E94F4
:101AD0006F07FC011082018312820E9421026CE2D6
:101AE00071E080E090E00E94E30170E060E08FE44C
:101AF00092E00E946F07FC011082118212836BE05A
:101B000070E08FE492E00E946F07FC011082118266
:101B100012830E9421026CE271E080E090E00E945A
:101B2000E3010E94DF0020912F01309130014091AC
:101B3000310128A739A74AA74091320150913301BA
:101B4000609134014BA75CA76DA755245394209056
:101B5000350130903601409037010E9415026093A4
:101B6000E8017093E9018093EA019093EB012091E1
:101B7000E701211164C10091DF011091E001209182
:101B8000E1013091E201601B710B820B930B653612
:101B900071058105910508F452C183E00E944F014F
:101BA000892B09F44CC15092E7018FE00E94A901F2
:101BB0000FEF13E09801281B390B032E000C440B88
:101BC000550B2A50310941095109AAEFB0E00E9492
:101BD00057186F307C4F8F4F9F4F0CF433C18FE0FD
:101BE0000E94A9019801281B390B032E000C440BFD
:101BF000550B2A50310941095109AAEFB0E00E9462
:101C0000571866347E4D834091050CF01DC18FE05E
:101C10000E94A9019801281B390B032E000C440BCC
:101C2000550B2A50310941095109AAEFB0E00E9431
:101C3000571822EF33E040E050E00E943818122F8E
:101C40008091AC01882309F401C180909E0190909D
:101C50009F01A090A001B090A101BFEF8B1A9B0A39
:101C6000AB0ABB0A80929E0190929F01A092A001B4
:101C7000B092A1010E941C070E941C070E941C0731
:101C8000282F30E0A1E3B0E00E9484182FEF30E06D
:101C900040E050E00E94381869017A01EFEFCE1A57
:101CA000DE0AEE0AFE0A0E94CA060E94CA060E94C6
:101CB000CA06282F30E0A8E7B0E00E9484182FEF72
:101CC00030E040E050E00E9438182B5F3F4F4F4F0C
:101CD0005F4F80910101C814D904EA04FB0468F441
:101CE00090919D01980F90939D0110929E011092EA
:101CF0009F011092A0011092A1012695922F90951C
:101D000040919D01042E000C550BE82F082E000C6D
:101D1000FF0BEC9DB001ED9D700DFC9D700D11242D
:101D2000461B570B692F092E000C770B6150710968
:101D3000461757072CF490939D01819580930101DC
:101D40008091010190919D01682F082E000C770B66
:101D50006C9DA0016D9D500D7C9D500D1124490F6F
:101D6000511D97FD5A95241715062CF420939D01BB
:101D700081958093010120919D01120F10931D0503
:101D80008FEF80931E0580931F05C090E801D090CF
:101D9000E901E090EA01F090EB018091A8019091B7
:101DA000A901A091AA01B091AB0197018601081B7E
:101DB000190B2A0B3B0BD901C80185369105A105EA
:101DC000B10508F459C00E94840787FD4DC0909169
:101DD000AF01282F082E000C330B9217130611F0B9
:101DE0008093AF01E091AF01E250E73008F03CC0D2
:101DF000F0E0E350F14F0C94C71A320F320F82110A
:101E0000A311DB111612191290E0B0E0A0E09C01C2
:101E1000AD012150310941095109AEE7B0E00E94FE
:101E2000571803E095958795779567950A95D1F7AB
:101E30006F5F7F4F8F4F9F4F60930001A6CD109231
:101E4000E701B3CE10E0FCCE1AEFFACE0E941C07D9
:101E5000082F0E94CA0610929D0110931D05009341
:101E60001E0591CF0E94EC05C092A801D092A90155
:101E7000E092AA01F092AB018091E701882351F032
:101E80009091DD018091AF01981721F09093AE0100
:101E90008093DD0185E00E944F0121E0892B09F448
:101EA00020E02093D80184E00E944F0121E0892B9B
:101EB00009F420E020932A0185E10E94A901823CD7
:101EC00051E0950708F0C5C25092AC011092D601BE
:101ED00084E10E94A9019C012159314028353240FA
:101EE00008F0CDC282E08093D70160E080912C029F
:101EF0000E94780160E080912D020E94780161E0EB
:101F000080912F020E94780161E080912E020E9450
:101F1000780180913A02E0913202F091330290818F
:101F2000892B808380913B02E0913602F091370249
:101F3000908180958923808380912C020E94A90141
:101F40008C0180912C020E94A9016C01C8018C199E
:101F50009D090496099708F09BC2C00ED11ED59426
:101F6000C79401E00FA38FEF93E08C010C191D09BA
:101F70001EA30DA360E080912F020E94780160E013
:101F800080912E020E94780161E080912C020E94D3
:101F9000780161E080912D020E94780180913D02DC
:101FA000E0913802F09139029081809589238083F5
:101FB00080913C02E0913402F09135029081892BAE
:101FC000808380912E020E94A9018C0180912E02B3
:101FD0000E94A9017C01C8018E199F0904960997E6
:101FE00008F058C2E00EF11EF594E79461E080918C
:101FF0002F020E94780160E080912C020E947801FB
:1020000080913A02E0913202F09133029081809502
:102010008923808380913D02E0913802F09139025A
:102020009081892B808380912E020E94A9018C01CE
:1020300080912C020E94A901A0903002B090310240
:10204000A114B10409F428C2BC01990F880B990BA3
:102050000E94AA193B014C01B801110F880B990B82
:102060000E94AA199B01AC01C401B3010E9400198E
:1020700020E030E040E85FE30E9493183B014C0110
:102080000DA11EA1B801110F880B990B0E94AA196E
:10209000A40193010E94361A3B014C01B50190E066
:1020A00080E00E94A819A40193010E94361A20E042
:1020B00030E040E85AE30E94361A0E9472198B0100
:1020C0002FA1211102C010E000E080912A0290911E
:1020D0002B02801791070CF0E4C18FEF93E05C01B5
:1020E000AE18BF084DA15EA150931F0240931E027F
:1020F000B0922102A09220021093230200932202A8
:1021000063E574E06C197D09072E000C880B990BB0
:102110006A55710981099109A2E0660F771F881F2E
:10212000991FAA95D1F7D12C693B5CEF75075FEF3A
:10213000850795077CF0F4E0DF2E6836A0E17A078A
:10214000810591053CF428E433E040E050E00E9432
:102150003818D22E6FE375E06E197F09072E000C38
:10216000880B990B20E06D35BEEF7B07BFEF8B0727
:102170009B078CF021E06C3DE5E07E078105910531
:1021800054F46C5D71098109910920E832E040E066
:1021900050E00E9438188D2D90E0909319028093A2
:1021A000180230E030931B0220931A0210931D0294
:1021B00000931C022DA13EA13093250220932402FE
:1021C000B0922702A09226021093290200932802BF
:1021D0002091260230912702032E000C440B550B50
:1021E0002C5D310941095109AEEFB1E00E94571849
:1021F00020E832E040E050E00E94381857FD5EC110
:102200002F3F61E03607410551050CF05AC12F5FA1
:1022100031094109510900911D05009320058FEFF7
:10222000809321058093220537FF4EC121502093D2
:1022300022050E94DF0080911E050F838887FF24FE
:10224000FA94F9866BE070E08FE492E00E946F07E9
:10225000BC01CE0107960E9436036BE070E08FE46C
:1022600092E00E946F07AC014E5F5F4FBC016F5F51
:102270007F4F0E94B50070E060E08FE492E00E9422
:102280006F07BC0180E295E00E94360370E060E0D9
:102290008FE492E00E946F07AC014E5F5F4FBC017C
:1022A0006F5F7F4F0E94B5008091DE01811107C2F0
:1022B0001091DD010F83F886F9866BE070E08FE402
:1022C00092E00E946F07BC01CE0107960E94360380
:1022D0001150183008F035C1E12FF0E0E658FE4EFD
:1022E0009091D60160911D0570911E0580911F058A
:1022F0000C94C71A751220142A142C144715C716EB
:10230000CE16D7168091D601882371F08FEF809377
:1023100011011092B001C092B101D092B201E092CD
:10232000B301F092B401A0CD1092BB01C092B701ED
:10233000D092B801E092B901F092BA011092B601C0
:102340005092120191CD8091D601882329F11092EB
:102350001301109214018BE08093150180931601F4
:1023600086E1809317018093180181E2809319011F
:1023700080931A018CE280931B0180931C011092C0
:10238000BC011092C101C092BD01D092BE01E09289
:10239000BF01F092C00168CD50921D011092C201A0
:1023A0001092C701C092C301D092C401E092C5014E
:1023B000F092C60159CD28A539A54AA5209302015E
:1023C00030930301409304014BA55CA56DA5409398
:1023D0000501509306016093070120920801309295
:1023E000090140920A018091380190913901A09130
:1023F0003A0180930B0190930C01A0930D01809101
:102400003B0190913C01A0913D0180930E0190937E
:102410000F01A09310011092A6011092A201109238
:10242000A3011092A4011092A5011ECD1092A70144
:102430001BCD8091D601882309F416CD1092D101CD
:10244000C092CD01D092CE01E092CF01F092D001A6
:102450000BCD9C01225C31402639310518F41092D5
:10246000AC0134CD885592408039914028F4509287
:10247000AC015092D6012CCD1092AC01FACF893E1E
:10248000934018F05092D70130CD1092D7012DCD46
:102490001FA269CD1FA2AACD081B190B01501C4F0A
:1024A0000FCE10921F0210921E0210922102109263
:1024B000200210922302109222028ACE21E03FEFE6
:1024C000AACE2FEF30E0A7CE8091AD01811104C0DC
:1024D000209520932105ADCEC90163E070E00E94F4
:1024E000B31A600F60932005A4CE992309F4A0C10C
:1024F0006AA37BA38CA310E000E0EFEFCE2EE1E017
:10250000DE2E75EFE72E71E0F72EBE01695F7F4F7B
:10251000CE0182960E943603D7018D919D917D0157
:10252000AE01495F5F4F61E070E0800F911F0E9434
:102530001204CE14DF0449F7015F1F4F073811055D
:1025400001F786E0EEE1F2E0DE01119601900D92D6
:102550008A95E1F720912002309121028091220298
:102560009091230240911E0250911F02452B21F5AC
:10257000232B11F5892B01F58091D801882309F4CB
:1025800051C086E0E4E2F2E0DE01119601900D9286
:102590008A95E1F720912602309127028091280246
:1025A000909129024091240250912502452B21F45B
:1025B000232B11F4892BB1F19091D70180912A013D
:1025C000913009F01FC565EFE62E61E0F62E75E04B
:1025D000D72E8111F6C40E94290410E000E054E0D7
:1025E000F52E809118029091190208171907A9F089
:1025F000EF2DE81BE01789F01F8218861986F80175
:10260000EE0FFF1FEB50FE4FAE01495F5F4F6DE2D3
:1026100070E0808191810E9412040F5F1F4F05308E
:102620001105F9F695EFA92E91E0B92E10E000E022
:1026300024E8822E912C39E0632E712C84E8E82E58
:10264000F12CD501CD90DC90B6016E0D7F1DCE0131
:102650000A960E949800B4016E197F096C0D7D1DC9
:10266000CE0107960E949800B3E0EB1AF108EDEF57
:10267000EE16EFEFFE0629F7B80188E492E00E941B
:102680006F072F8138854985DC012D933D934C934D
:10269000B301601B710B88E492E00E946F072A85EA
:1026A0003B854C85FC012083318342830F5F1F4FA4
:1026B000F2E0AF0EB11C0530110509F0BFCFC0909C
:1026C000E801D090E901E090EA01F090EB018091FF
:1026D000D9019091DA01A091DB01B091DC01970161
:1026E0008601081B190B2A0B3B0BD901C8018D323F
:1026F0009140A105B105B0F081E10E944F01892B05
:1027000089F0C092D901D092DA01E092DB01F09217
:10271000DC0180911D0580933E0210923F028FEFF5
:10272000809340028091D9019091DA01A091DB0160
:10273000B091DC01C81AD90AEA0AFB0A2CEBC216CE
:1027400022E0D206E104F104A0F48EE392E00E94BC
:10275000E00380913F028B3F08F08AEF8B5F80930C
:102760003F0280914002853008F485E085508093D7
:1027700040020E9421021091E70111111AC08091BC
:10278000E8019091E901A091EA01B091EB0140913B
:10279000DF015091E0016091E1017091E201841B41
:1027A000950BA60BB70B84369105A105B10508F072
:1027B00052C481E00E942401112309F44FC40E94F5
:1027C00015020091E8011091E9012091EA01309190
:1027D000EB01601B710B820B930B6093E301709311
:1027E000E4018093E5019093E6010E9415020091B7
:1027F000DF011091E0012091E1013091E201601BC5
:10280000710B820B930B60932B0170932C018093BF
:102810002D0190932E010E9415020E9415026093D3
:10282000DF017093E0018093E1019093E20116C40F
:102830006F8F78A389A3CE014F960E94E00381CECB
:1028400001E024E041E0911102C028E047E00E944D
:10285000010677CE0FEFF5CF2091E701992309F418
:102860008AC06C8F7D8F8E8F21111092B5011091CF
:10287000B501193008F05AC0222321F11F5F1093CF
:10288000B5018091E8019091E901A091EA01B09130
:10289000EB018093B1019093B201A093B301B09387
:1028A000B4019091B00180911101992311F09432FB
:1028B0001CF081958093110180911101890F809303
:1028C000B00134C00E9415026B017C0160912B01A4
:1028D00070912C0180912D0190912E0129E030E022
:1028E00040E050E00E9462188091B1019091B201E5
:1028F000A091B301B091B401280F391F4A1F5B1F8B
:102900008091E3019091E401A091E501B091E6018D
:10291000B695A79597958795281B390B4A0B5B0BA6
:102920002C153D054E055F0508F4A8CF05EF11E015
:102930008FEFE82E81E0F82E93E0D92EBE01695F7B
:102940007F4FCE014C960E943603F8018191919100
:102950008F012091B001AE01495F5F4F69E070E0E7
:10296000FD2D2F02800D911D11240E941204E016EE
:10297000F10621F7E6CD698F7A8F8B8F21111092A6
:10298000BB011091BB011B3008F5222309F43FC0A5
:102990001F5F1093BB018091E8019091E901A09124
:1029A000EA01B091EB018093B7019093B801A09335
:1029B000B901B093BA01909112018091B601890FCB
:1029C0008093B6018150853108F056C075EFC72E4F
:1029D00071E0D72EE5E0AE2E0CE210E0F3E09F2E82
:1029E000B090B6017801EB18F108BE141F0411F085
:1029F0000CF046C0D6016D917C91B99C600D711DA3
:102A00001124CE0149960E943603B394EECF0E9462
:102A100015026B017C0160912B0170912C0180915A
:102A20002D0190912E012BE030E040E050E00E941B
:102A300062188091B7019091B801A091B901B0914D
:102A4000BA01280F391F4A1F5B1F8091E301909143
:102A5000E401A091E501B091E601B695A79597959F
:102A60008795281B390B4A0B5B0B2C153D054E0532
:102A70005F0508F48DCFAACF919590931201A6CF50
:102A8000AA94B2E0CB0ED11CA110AACF5ACD2091AE
:102A9000E701992309F4C3C06E8B7F8B888F2111C6
:102AA0001092C1011091C1011B3008F073C02223A4
:102AB000E9F11F5F1093C1018091E8019091E90154
:102AC000A091EA01B091EB018093BD019093BE010A
:102AD000A093BF01B093C0018091BC01E3E1F1E09C
:102AE00090E044E0242F291B813009F479C008F4D8
:102AF00070C0823009F47AC0833009F47FC09F5FD0
:102B00003296953079F72091140190911301E22FBC
:102B1000E91BFF0B291711F0BC97E1F58F5F80933C
:102B2000BC018430B8F11092BC0134C00E9415027F
:102B30006B017C0160912B0170912C0180912D0122
:102B400090912E012BE030E040E050E00E946218AE
:102B50008091BD019091BE01A091BF01B091C001D3
:102B6000280F391F4A1F5B1F8091E3019091E401F8
:102B7000A091E501B091E601B695A7959795879547
:102B8000281B390B4A0B5B0B2C153D054E055F05C9
:102B900008F48FCF03E111E0A5EFCA2EA1E0DA2EF1
:102BA000BDE1EB2EB1E0FB2E83E0A82ED801BC9056
:102BB000F80181818B1550F1D6016D917C91BA9C01
:102BC000600D711D1124CE0146960E943603B39408
:102BD000EFCF3181230F21832081291B20838FCFC9
:102BE0003181391B31833081230FF8CF3181321B82
:102BF0003C5F31833081321B232FF0CF3181321B78
:102C000031833081321B232F2C5FE8CF0E5F1F4FA3
:102C1000B2E0CB0ED11CE016F10641F692CC6B8BE4
:102C20007C8B8D8B21111092C7011091C7011B3035
:102C300008F5222309F459C01F5F1093C701809142
:102C4000E8019091E901A091EA01B091EB01809334
:102C5000C3019093C401A093C501B093C6019091A4
:102C60001D018091C201890F8093C201815085317D
:102C700008F070C055EFE52E51E0F52E712C66E19D
:102C8000A62EB12C73E0672EECE2CE2ED12C8091D3
:102C9000C20170FE63C0882E8C3010F04BE0842E91
:102CA000982EEBE08E1710F43BE0932E981408F466
:102CB00066C0D7010D911C91B801869C600D711DF5
:102CC0001124CE0143960E943603C601881991094A
:102CD000BC01660F771F680F791F600F711FCE014F
:102CE00043960E9436038394E1CF0E9415026B0144
:102CF0007C0160912B0170912C0180912D019091AC
:102D00002E012BE030E040E050E00E9462188091FC
:102D1000C3019091C401A091C501B091C601280FD3
:102D2000391F4A1F5B1F8091E3019091E401A0913C
:102D3000E501B091E601B695A79597958795281B73
:102D4000390B4A0B5B0B2C153D054E055F0508F44E
:102D500073CF90CF919590931D018CCF8501081B67
:102D60001109C801202F0C3011050CF02BE0822E28
:102D70008B30910514F48BE090E0982E97CF7394EC
:102D8000B2E0EB0EF11CE5E07E1281CFDACB41E040
:102D9000911101C040E00E94D704D3CB4EE151E035
:102DA000911102C043E251E00E949604CACB2091E7
:102DB000E701992309F4B3C0688B798B8A8B2111C1
:102DC0001092D1011091D101123008F07FC022235E
:102DD00009F44AC01F5F1093D1018091E8019091DE
:102DE000E901A091EA01B091EB018093CD019093AC
:102DF000CE01A093CF01B093D00120912801309152
:102E00002901E8ECF1E0A5E0CA2EA8E0DA2EBFE047
:102E1000BB2E13E2E12EF12C41912C9DB0012D9D92
:102E2000700D3C9D700D11249B01275E394C8F0164
:102E300001501109832F820F8B9DC0011124892F0E
:102E4000992750E0415F5F4F840F951FB7010E94A3
:102E5000B31AD8018C93B1E0ED3CFB07E9F630934F
:102E600029012093280132C00E9415026B017C01C8
:102E700080912B0190912C01A0912D01B0912E01F8
:102E8000B695A795979587954091CD015091CE0124
:102E90006091CF017091D001840F951FA61FB71FBD
:102EA0004091E3015091E4016091E5017091E601E8
:102EB0007695679557954795841B950BA60BB70B91
:102EC0008C159D05AE05BF0508F484CF05EF11E014
:102ED000F8ECEF2EF1E0FF2EAFEFCA2EA1E0DA2ED4
:102EE000B3E0BB2EBE01695F7F4FCE0140960E94CA
:102EF0003603F801819191918F01D7012D917D01C8
:102F0000AE01495F5F4F6AE070E02B9D800D911D1F
:102F100011240E941204C016D10621F712CB6D872E
:102F20007E878F878091E8019091E901A091EA0165
:102F3000B091EB01222341F08093D2019093D30111
:102F4000A093D401B093D5014091D2015091D30107
:102F50006091D4017091D5018C019D01041B150B6A
:102F6000260B370BB901A80180912B0190912C0100
:102F7000A0912D01B0912E01803213E09107A1059F
:102F8000B105A8F484359105A105B105A8F0E2E0EA
:102F9000B695A79597958795EA95D1F7481759075C
:102FA0006A077B0708F0CDCACE010D9646CC88ECA7
:102FB00090E0A0E0B0E0F2CF84E190E0A0E0B0E0EB
:102FC000EDCF10E000E0D701ED91FC91E00FF11F93
:102FD0008081811106C08181811103C08281882393
:102FE00029F0BF0180E295E00E9436030D5F1F4F7C
:102FF0000738110541F7DA94B2E0EB0EF11CD1105D
:10300000E0CFEBCA9230B9F4811105C080E295E0BF
:103010000E94E00307CB80E00E946A0481E00E94E6
:103020006A0482E00E946A0483E00E946A0484E0E9
:103030000E946A04F7CA811103C00E942904F2CADF
:1030400010911802812F0E946A04123009F4EACA12
:1030500084E0811BEDCF80E00E94240180E090E0BD
:10306000892B11F40C94AD0D0E9400000C94AD0D51
:10307000052E97FB1EF400940E944F1857FD07D0B1
:103080000E94621807FC03D04EF40C944F18509520
:103090004095309521953F4F4F4F5F4F0895909544
:1030A0008095709561957F4F8F4F9F4F08950E9437
:1030B0008418A59F900DB49F900DA49F800D911D25
:1030C00011240895A1E21A2EAA1BBB1BFD010DC0FD
:1030D000AA1FBB1FEE1FFF1FA217B307E407F507C8
:1030E00020F0A21BB30BE40BF50B661F771F881FA4
:1030F000991F1A9469F760957095809590959B013A
:10310000AC01BD01CF010895A29FB001B39FC001E2
:10311000A39F700D811D1124911DB29F700D811D03
:103120001124911D08955058BB27AA270E94AB185F
:103130000C94FC190E94EE1938F00E94F51920F049
:1031400039F49F3F19F426F40C94EB190EF4E09532
:10315000E7FB0C94E519E92F0E940D1A58F3BA17F2
:10316000620773078407950720F079F4A6F50C949D
:103170002F1A0EF4E0950B2EBA2FA02D0B01B901DA
:1031800090010C01CA01A0011124FF27591B99F0DD
:10319000593F50F4503E68F11A16F040A22F232FE9
:1031A000342F4427585FF3CF469537952795A79539
:1031B000F0405395C9F77EF41F16BA0B620B730BE0
:1031C000840BBAF09150A1F0FF0FBB1F661F771F51
:1031D000881FC2F70EC0BA0F621F731F841F48F406
:1031E000879577956795B795F7959E3F08F0B0CF8F
:1031F0009395880F08F09927EE0F97958795089576
:103200000E9414190C94FC190E94F51958F00E94A0
:10321000EE1940F029F45F3F29F00C94E5195111A3
:103220000C94301A0C94EB190E940D1A68F3992330
:10323000B1F3552391F3951B550BBB27AA276217B2
:103240007307840738F09F5F5F4F220F331F441FBF
:10325000AA1FA9F335D00E2E3AF0E0E832D09150F3
:103260005040E695001CCAF72BD0FE2F29D0660FE0
:10327000771F881FBB1F261737074807AB07B0E823
:1032800009F0BB0B802DBF01FF2793585F4F3AF029
:103290009E3F510578F00C94E5190C94301A5F3F6D
:1032A000E4F3983ED4F3869577956795B795F795AF
:1032B0009F5FC9F7880F911D9695879597F9089597
:1032C000E1E0660F771F881FBB1F62177307840733
:1032D000BA0720F0621B730B840BBA0BEE1F88F742
:1032E000E09508950E9479196894B1110C94301AF0
:1032F00008950E94151A88F09F5798F0B92F9927C2
:10330000B751B0F0E1F0660F771F881F991F1AF0D0
:10331000BA95C9F714C0B13091F00E942F1AB1E0EC
:1033200008950C942F1A672F782F8827B85F39F0EB
:10333000B93FCCF3869577956795B395D9F73EF469
:1033400090958095709561957F4F8F4F9F4F089511
:10335000E89409C097FB3EF490958095709561952F
:103360007F4F8F4F9F4F9923A9F0F92F96E9BB27E5
:103370009395F695879577956795B795F111F8CF61
:10338000FAF4BB0F11F460FF1BC06F5F7F4F8F4FCC
:103390009F4F16C0882311F096E911C0772321F0C2
:1033A0009EE8872F762F05C0662371F096E8862F5A
:1033B00070E060E02AF09A95660F771F881FDAF7B1
:1033C000880F9695879597F9089597F99F6780E8F4
:1033D00070E060E008959FEF80EC089500240A9467
:1033E0001616170618060906089500240A941216E0
:1033F0001306140605060895092E0394000C11F413
:10340000882352F0BB0F40F4BF2B11F460FF04C0BF
:103410006F5F7F4F8F4F9F4F089557FD9058440F18
:10342000551F59F05F3F71F04795880F97FB991F23
:1034300061F09F3F79F087950895121613061406E0
:10344000551FF2CF4695F1DF08C01616170618066D
:10345000991FF1CF86957105610508940895E89448
:10346000BB2766277727CB0197F908950E94491A51
:103470000C94FC190E94EE1938F00E94F51920F006
:10348000952311F00C94E5190C94EB1911240C946C
:10349000301A0E940D1A70F3959FC1F3950F50E0FA
:1034A000551F629FF001729FBB27F00DB11D639FF6
:1034B000AA27F00DB11DAA1F649F6627B00DA11D9C
:1034C000661F829F2227B00DA11D621F739FB00D42
:1034D000A11D621F839FA00D611D221F749F3327B2
:1034E000A00D611D231F849F600D211D822F762F4B
:1034F0006A2F11249F5750409AF0F1F088234AF028
:10350000EE0FFF1FBB1F661F771F881F9150504093
:10351000A9F79E3F510580F00C94E5190C94301AE0
:103520005F3FE4F3983ED4F3869577956795B7951A
:10353000F795E7959F5FC1F7FE2B880F911D969534
:10354000879597F90895DB018F939F930E945718F1
:10355000BF91AF91A29F800D911DA39F900DB29F2F
:10356000900D1124089597FB072E16F4009407D0B0
:1035700077FD09D00E94D41A07FC05D03EF490953F
:1035800081959F4F0895709561957F4F0895EE0F37
:10359000FF1F0590F491E02D09940E948418B7FF55
:1035A0000895821B930B0895AA1BBB1B51E107C012
:1035B000AA1FBB1FA617B70710F0A61BB70B881FC3
:1035C000991F5A95A9F780959095BC01CD01089552
:0E35D00081E090E0F8940C94ED1AF894FFCF8F
:1035DE00FF010014FF011CFF0222FF031CFF041455
:1035EE00FFFF0100000B0B161621212C2C010200EF
:1035FE0003010402030400013905017C15000000DB
:10360E0014FF011CFF0222FF031CFF0414FF01FF25
:10361E0002FF04FF05FF07FF08FFFFFFFFFF03FF89
:10362E0000FF06FF01FF0900000000010B010B0166
:10363E000BE00ADC0AD90A00000000960A3A0A38A2
:0A364E000AE00ADC0A3303D9070082
:00000001FF
